{
  "contractName": "Cars",
  "abi": [
    {
      "anonymous": false,
      "inputs": [
        {
          "indexed": false,
          "internalType": "string",
          "name": "name",
          "type": "string"
        },
        {
          "indexed": false,
          "internalType": "uint256",
          "name": "year",
          "type": "uint256"
        },
        {
          "indexed": false,
          "internalType": "uint256",
          "name": "amount",
          "type": "uint256"
        }
      ],
      "name": "CarLoaded",
      "type": "event"
    },
    {
      "anonymous": false,
      "inputs": [
        {
          "indexed": false,
          "internalType": "uint256",
          "name": "_carId",
          "type": "uint256"
        }
      ],
      "name": "Sold",
      "type": "event"
    },
    {
      "inputs": [
        {
          "internalType": "uint256",
          "name": "_tokenId",
          "type": "uint256"
        }
      ],
      "name": "onlyOwner",
      "outputs": [
        {
          "internalType": "address",
          "name": "",
          "type": "address"
        }
      ],
      "stateMutability": "view",
      "type": "function"
    },
    {
      "inputs": [
        {
          "internalType": "string",
          "name": "_name",
          "type": "string"
        },
        {
          "internalType": "uint256",
          "name": "_year",
          "type": "uint256"
        },
        {
          "internalType": "uint256",
          "name": "_amount",
          "type": "uint256"
        }
      ],
      "name": "addCar",
      "outputs": [],
      "stateMutability": "nonpayable",
      "type": "function"
    },
    {
      "inputs": [
        {
          "internalType": "uint256",
          "name": "_carId",
          "type": "uint256"
        }
      ],
      "name": "isItSold",
      "outputs": [
        {
          "internalType": "bool",
          "name": "",
          "type": "bool"
        }
      ],
      "stateMutability": "view",
      "type": "function"
    },
    {
      "inputs": [
        {
          "internalType": "uint256",
          "name": "_id",
          "type": "uint256"
        }
      ],
      "name": "lookup",
      "outputs": [
        {
          "internalType": "string",
          "name": "",
          "type": "string"
        }
      ],
      "stateMutability": "view",
      "type": "function"
    },
    {
      "inputs": [
        {
          "internalType": "uint256",
          "name": "_carId",
          "type": "uint256"
        }
      ],
      "name": "fatch",
      "outputs": [
        {
          "internalType": "string",
          "name": "name",
          "type": "string"
        },
        {
          "internalType": "uint256",
          "name": "year",
          "type": "uint256"
        },
        {
          "internalType": "uint256",
          "name": "amount",
          "type": "uint256"
        },
        {
          "internalType": "bool",
          "name": "status",
          "type": "bool"
        },
        {
          "internalType": "address",
          "name": "owner",
          "type": "address"
        },
        {
          "internalType": "address",
          "name": "buyer",
          "type": "address"
        }
      ],
      "stateMutability": "view",
      "type": "function"
    },
    {
      "inputs": [
        {
          "internalType": "uint256",
          "name": "_carId",
          "type": "uint256"
        }
      ],
      "name": "payment",
      "outputs": [],
      "stateMutability": "payable",
      "type": "function"
    }
  ],
  "bytecode": "0x608060405234801561001057600080fd5b50610dd8806100206000396000f3fe6080604052600436106100555760003560e01c80630a874df61461005a57806346a5059f1461010e5780635bc8419a146101735780638b3c99e314610278578063c7226bb7146102a6578063c8351be0146102f7575b600080fd5b34801561006657600080fd5b506100936004803603602081101561007d57600080fd5b81019080803590602001909291905050506103d3565b6040518080602001828103825283818151815260200191508051906020019080838360005b838110156100d35780820151818401526020810190506100b8565b50505050905090810190601f1680156101005780820380516001836020036101000a031916815260200191505b509250505060405180910390f35b34801561011a57600080fd5b506101476004803603602081101561013157600080fd5b810190808035906020019092919050505061048b565b604051808273ffffffffffffffffffffffffffffffffffffffff16815260200191505060405180910390f35b34801561017f57600080fd5b506101ac6004803603602081101561019657600080fd5b8101908080359060200190929190505050610507565b604051808060200187815260200186815260200185151581526020018473ffffffffffffffffffffffffffffffffffffffff1681526020018373ffffffffffffffffffffffffffffffffffffffff168152602001828103825288818151815260200191508051906020019080838360005b8381101561023857808201518184015260208101905061021d565b50505050905090810190601f1680156102655780820380516001836020036101000a031916815260200191505b5097505050505050505060405180910390f35b6102a46004803603602081101561028e57600080fd5b8101908080359060200190929190505050610695565b005b3480156102b257600080fd5b506102df600480360360208110156102c957600080fd5b81019080803590602001909291905050506109f1565b60405180821515815260200191505060405180910390f35b34801561030357600080fd5b506103d16004803603606081101561031a57600080fd5b810190808035906020019064010000000081111561033757600080fd5b82018360208201111561034957600080fd5b8035906020019184600183028401116401000000008311171561036b57600080fd5b91908080601f016020809104026020016040519081016040528093929190818152602001838380828437600081840152601f19601f8201169050808301925050505050505091929192908035906020019092919080359060200190929190505050610a1e565b005b6060600160008381526020019081526020016000206000018054600181600116156101000203166002900480601f01602080910402602001604051908101604052809291908181526020018280546001816001161561010002031660029004801561047f5780601f106104545761010080835404028352916020019161047f565b820191906000526020600020905b81548152906001019060200180831161046257829003601f168201915b50505050509050919050565b6000806002600084815260200190815260200160002060009054906101000a900473ffffffffffffffffffffffffffffffffffffffff169050600073ffffffffffffffffffffffffffffffffffffffff168173ffffffffffffffffffffffffffffffffffffffff1614156104fe57600080fd5b80915050919050565b60606000806000806000600160008881526020019081526020016000206000018054600181600116156101000203166002900480601f0160208091040260200160405190810160405280929190818152602001828054600181600116156101000203166002900480156105bb5780601f10610590576101008083540402835291602001916105bb565b820191906000526020600020905b81548152906001019060200180831161059e57829003601f168201915b5050505050955060016000888152602001908152602001600020600101549450600160008881526020019081526020016000206002015493506001600088815260200190815260200160002060030160009054906101000a900460ff1692506001600088815260200190815260200160002060030160019054906101000a900473ffffffffffffffffffffffffffffffffffffffff1691506001600088815260200190815260200160002060040160009054906101000a900473ffffffffffffffffffffffffffffffffffffffff16905091939550919395565b6000339050600015156001600084815260200190815260200160002060030160009054906101000a900460ff1615151415610738576040517f08c379a000000000000000000000000000000000000000000000000000000000815260040180806020018281038252600f8152602001807f5468652063617220697320736f6c64000000000000000000000000000000000081525060200191505060405180910390fd5b600115156001600084815260200190815260200160002060030160009054906101000a900460ff161515146107b8576040517f08c379a0000000000000000000000000000000000000000000000000000000008152600401808060200182810382526021815260200180610d826021913960400191505060405180910390fd5b6001600083815260200190815260200160002060020154341015610844576040517f08c379a000000000000000000000000000000000000000000000000000000000815260040180806020018281038252601c8152602001807f20636865636b2074686520616d6f756e74206f6620746865206361720000000081525060200191505060405180910390fd5b60006001600084815260200190815260200160002060030160006101000a81548160ff021916908315150217905550600060016000848152602001908152602001600020600201549050816001600085815260200190815260200160002060040160006101000a81548173ffffffffffffffffffffffffffffffffffffffff021916908373ffffffffffffffffffffffffffffffffffffffff1602179055506001600084815260200190815260200160002060030160019054906101000a900473ffffffffffffffffffffffffffffffffffffffff1673ffffffffffffffffffffffffffffffffffffffff166108fc829081150290604051600060405180830381858888f1935050505015801561095f573d6000803e3d6000fd5b50816001600085815260200190815260200160002060030160016101000a81548173ffffffffffffffffffffffffffffffffffffffff021916908373ffffffffffffffffffffffffffffffffffffffff1602179055507f92f64ca637d023f354075a4be751b169c1a8a9ccb6d33cdd0cb3520543995727836040518082815260200191505060405180910390a1505050565b60006001600083815260200190815260200160002060030160009054906101000a900460ff169050919050565b6003600081548092919060010191905055506040518060c001604052808481526020018381526020018281526020016001151581526020013373ffffffffffffffffffffffffffffffffffffffff168152602001600073ffffffffffffffffffffffffffffffffffffffff168152506001600060035481526020019081526020016000206000820151816000019080519060200190610abe929190610ce4565b50602082015181600101556040820151816002015560608201518160030160006101000a81548160ff02191690831515021790555060808201518160030160016101000a81548173ffffffffffffffffffffffffffffffffffffffff021916908373ffffffffffffffffffffffffffffffffffffffff16021790555060a08201518160040160006101000a81548173ffffffffffffffffffffffffffffffffffffffff021916908373ffffffffffffffffffffffffffffffffffffffff160217905550905050610b9033600354610c41565b7f239773ffd8ec1aed9051eab471d803887287b57180287c8a368164bf247f47cd8383836040518080602001848152602001838152602001828103825285818151815260200191508051906020019080838360005b83811015610c00578082015181840152602081019050610be5565b50505050905090810190601f168015610c2d5780820380516001836020036101000a031916815260200191505b5094505050505060405180910390a1505050565b816002600083815260200190815260200160002060006101000a81548173ffffffffffffffffffffffffffffffffffffffff021916908373ffffffffffffffffffffffffffffffffffffffff16021790555060016000808473ffffffffffffffffffffffffffffffffffffffff1673ffffffffffffffffffffffffffffffffffffffff168152602001908152602001600020600082825401925050819055505050565b828054600181600116156101000203166002900490600052602060002090601f016020900481019282601f10610d2557805160ff1916838001178555610d53565b82800160010185558215610d53579182015b82811115610d52578251825591602001919060010190610d37565b5b509050610d609190610d64565b5090565b5b80821115610d7d576000816000905550600101610d65565b509056fe746865206361722068617320746f206265206c697374656420666f722073616c65a2646970667358221220a39aef4880dba5067b842e5252336cb02365a025a546854e7938def24d39698864736f6c63430007000033",
  "immutableReferences": {},
  "source": "\r\n//SPDX-License-Identifier: MIT\r\n\r\npragma solidity ^0.7.0;\r\n\r\ncontract Cars {\r\n    \r\n    struct Car {\r\n        string name;\r\n        uint256 year;\r\n        uint amount;\r\n        bool forSale;\r\n        address  carOwnerAdress;\r\n        address buyerAddress;\r\n    }\r\n    \r\n    event CarLoaded(\r\n        string name,\r\n        uint year,\r\n        uint amount\r\n        );\r\n        \r\n    event Sold(\r\n        uint256 _carId);\r\n    \r\n    \r\n    mapping(address=> uint256) private ownedCars;\r\n    mapping(uint => Car) private carId; /* map the counter to a car */\r\n    mapping (uint256 => address) private owners;\r\n    \r\n    \r\n    modifier onlyCreator(uint256 _id){\r\n        require(onlyOwner(_id) == msg.sender, \"You are not authorized!\");\r\n        _;\r\n    }\r\n    \r\n    function onlyOwner(uint256 _tokenId) public view returns (address) {\r\n        address owner = owners[_tokenId];\r\n        require(owner != address(0));\r\n        return owner;\r\n    }\r\n    \r\n    function mint(address _to, uint256 _tokenId) internal {\r\n        owners[_tokenId] = _to;\r\n        ownedCars[_to] += 1;\r\n    }\r\n    \r\n    uint256 counter ; // increasment \r\n    \r\n    /**\r\n     * this function takes 3 args to input values to the struct Car\r\n     */\r\n    function addCar(string memory _name, uint256 _year, uint256 _amount) public{\r\n    counter++;\r\n    \r\n    // require(owners[counter] != address(0), \"Token already minted\");\r\n    carId[counter] = Car(_name, _year, _amount, true, msg.sender, address(0));\r\n    mint(msg.sender, counter);\r\n    emit CarLoaded(_name, _year, _amount);\r\n\r\n    }\r\n    \r\n    /**\r\n     * this function to check if it is for sale\r\n     */\r\n    function isItSold(uint256 _carId) public view returns(bool){\r\n         return carId[_carId].forSale;\r\n        \r\n    }\r\n    \r\n     function lookup(uint256 _id) public view returns(string memory){\r\n        return carId[_id].name;\r\n        \r\n    }\r\n    \r\n    function fatch(uint _carId) public view returns(string memory name, uint year, uint amount, bool status , address owner, address buyer){\r\n        name = carId[_carId].name;\r\n        year = carId[_carId].year;\r\n        amount = carId[_carId].amount;\r\n        status = carId[_carId].forSale;\r\n        owner = carId[_carId].carOwnerAdress;\r\n        buyer = carId[_carId].buyerAddress;\r\n\r\n        \r\n    }\r\n    \r\n    /**\r\n     * A payable function to transfer the value \r\n     */\r\n    function payment(uint256 _carId) public payable {\r\n        address buyer = msg.sender;\r\n        require(carId[_carId].forSale != false, \"The car is sold\");\r\n        require(carId[_carId].forSale == true, \"the car has to be listed for sale\");\r\n        require(msg.value >= carId[_carId].amount, \" check the amount of the car\");\r\n        \r\n        \r\n        carId[_carId].forSale = false; // update the status of the car\r\n        uint256 price = carId[_carId].amount;\r\n        carId[_carId].buyerAddress = buyer; // update buyer address\r\n        payable(carId[_carId].carOwnerAdress).transfer(price);\r\n        carId[_carId].carOwnerAdress = buyer;  // update the owner address\r\n\r\n        //9000000000000000000 = 9 ether\r\n        emit Sold(_carId);\r\n        \r\n    \r\n}\r\n}",
  "sourcePath": "C:/Users/User/Desktop/week6/contracts/car.sol",
  "compiler": {
    "name": "solc",
    "version": "0.7.0+commit.9e61f92b.Emscripten.clang"
  },
  "schemaVersion": "3.3.4",
  "updatedAt": "2021-03-08T16:52:50.100Z",
  "devdoc": {
    "kind": "dev",
    "methods": {},
    "version": 1
  },
  "userdoc": {
    "kind": "user",
    "methods": {
      "addCar(string,uint256,uint256)": {
        "notice": "this function takes 3 args to input values to the struct Car"
      },
      "isItSold(uint256)": {
        "notice": "this function to check if it is for sale"
      },
      "payment(uint256)": {
        "notice": "A payable function to transfer the value "
      }
    },
    "version": 1
  }
}