{
  "contractName": "TechInsurance",
  "abi": [
    {
      "inputs": [],
      "stateMutability": "nonpayable",
      "type": "constructor"
    },
    {
      "inputs": [
        {
          "internalType": "address",
          "name": "",
          "type": "address"
        },
        {
          "internalType": "uint256",
          "name": "",
          "type": "uint256"
        }
      ],
      "name": "client",
      "outputs": [
        {
          "internalType": "bool",
          "name": "isValid",
          "type": "bool"
        },
        {
          "internalType": "uint256",
          "name": "time",
          "type": "uint256"
        }
      ],
      "stateMutability": "view",
      "type": "function",
      "constant": true
    },
    {
      "inputs": [],
      "name": "insOwner",
      "outputs": [
        {
          "internalType": "address",
          "name": "",
          "type": "address"
        }
      ],
      "stateMutability": "view",
      "type": "function",
      "constant": true
    },
    {
      "inputs": [
        {
          "internalType": "uint256",
          "name": "",
          "type": "uint256"
        }
      ],
      "name": "productIndex",
      "outputs": [
        {
          "internalType": "uint256",
          "name": "productId",
          "type": "uint256"
        },
        {
          "internalType": "string",
          "name": "productName",
          "type": "string"
        },
        {
          "internalType": "uint256",
          "name": "price",
          "type": "uint256"
        },
        {
          "internalType": "bool",
          "name": "offered",
          "type": "bool"
        }
      ],
      "stateMutability": "view",
      "type": "function",
      "constant": true
    },
    {
      "inputs": [
        {
          "internalType": "address",
          "name": "owner",
          "type": "address"
        }
      ],
      "name": "_balanceOf",
      "outputs": [
        {
          "internalType": "uint256",
          "name": "",
          "type": "uint256"
        }
      ],
      "stateMutability": "view",
      "type": "function",
      "constant": true
    },
    {
      "inputs": [
        {
          "internalType": "uint256",
          "name": "_id",
          "type": "uint256"
        }
      ],
      "name": "_ownerOf",
      "outputs": [
        {
          "internalType": "address",
          "name": "",
          "type": "address"
        }
      ],
      "stateMutability": "view",
      "type": "function",
      "constant": true
    },
    {
      "inputs": [
        {
          "internalType": "uint256",
          "name": "_productId",
          "type": "uint256"
        },
        {
          "internalType": "string",
          "name": "_productName",
          "type": "string"
        },
        {
          "internalType": "uint256",
          "name": "_price",
          "type": "uint256"
        }
      ],
      "name": "addProduct",
      "outputs": [],
      "stateMutability": "nonpayable",
      "type": "function"
    },
    {
      "inputs": [
        {
          "internalType": "uint256",
          "name": "_Index",
          "type": "uint256"
        }
      ],
      "name": "changeFalse",
      "outputs": [],
      "stateMutability": "nonpayable",
      "type": "function"
    },
    {
      "inputs": [
        {
          "internalType": "uint256",
          "name": "_Index",
          "type": "uint256"
        }
      ],
      "name": "changeTrue",
      "outputs": [],
      "stateMutability": "nonpayable",
      "type": "function"
    },
    {
      "inputs": [
        {
          "internalType": "uint256",
          "name": "_productIndex",
          "type": "uint256"
        },
        {
          "internalType": "uint256",
          "name": "_price",
          "type": "uint256"
        }
      ],
      "name": "changePrice",
      "outputs": [],
      "stateMutability": "nonpayable",
      "type": "function"
    },
    {
      "inputs": [
        {
          "internalType": "uint256",
          "name": "_productIndex",
          "type": "uint256"
        }
      ],
      "name": "buyInsurance",
      "outputs": [],
      "stateMutability": "payable",
      "type": "function",
      "payable": true
    },
    {
      "inputs": [
        {
          "internalType": "address",
          "name": "to",
          "type": "address"
        },
        {
          "internalType": "uint256",
          "name": "_id",
          "type": "uint256"
        }
      ],
      "name": "transferInsurance",
      "outputs": [],
      "stateMutability": "nonpayable",
      "type": "function"
    },
    {
      "inputs": [
        {
          "internalType": "address",
          "name": "from",
          "type": "address"
        },
        {
          "internalType": "address",
          "name": "to",
          "type": "address"
        },
        {
          "internalType": "uint256",
          "name": "tokenId",
          "type": "uint256"
        }
      ],
      "name": "_transfer",
      "outputs": [],
      "stateMutability": "nonpayable",
      "type": "function"
    },
    {
      "inputs": [
        {
          "internalType": "address",
          "name": "to",
          "type": "address"
        },
        {
          "internalType": "uint256",
          "name": "tokenId",
          "type": "uint256"
        }
      ],
      "name": "_mint",
      "outputs": [],
      "stateMutability": "nonpayable",
      "type": "function"
    }
  ],
  "bytecode": "0x608060405234801561001057600080fd5b5033600160006101000a81548173ffffffffffffffffffffffffffffffffffffffff021916908373ffffffffffffffffffffffffffffffffffffffff1602179055506113df806100616000396000f3fe6080604052600436106100c25760003560e01c80639488d2721161007f578063b3de019c11610059578063b3de019c146104cb578063cca3e83214610510578063cf80d86714610575578063f6344b86146105b0576100c2565b80639488d272146103e4578063a86a658c14610425578063af94549514610453576100c2565b806330e0789e146100c7578063322d5a3314610142578063383505411461020d5780634268ff2d146102725780634e6ec2471461034e57806376169baf146103a9575b600080fd5b3480156100d357600080fd5b50610140600480360360608110156100ea57600080fd5b81019080803573ffffffffffffffffffffffffffffffffffffffff169060200190929190803573ffffffffffffffffffffffffffffffffffffffff1690602001909291908035906020019092919050505061060b565b005b34801561014e57600080fd5b5061017b6004803603602081101561016557600080fd5b8101908080359060200190929190505050610738565b60405180858152602001806020018481526020018315158152602001828103825285818151815260200191508051906020019080838360005b838110156101cf5780820151818401526020810190506101b4565b50505050905090810190601f1680156101fc5780820380516001836020036101000a031916815260200191505b509550505050505060405180910390f35b34801561021957600080fd5b506102466004803603602081101561023057600080fd5b810190808035906020019092919050505061080d565b604051808273ffffffffffffffffffffffffffffffffffffffff16815260200191505060405180910390f35b34801561027e57600080fd5b5061034c6004803603606081101561029557600080fd5b8101908080359060200190929190803590602001906401000000008111156102bc57600080fd5b8201836020820111156102ce57600080fd5b803590602001918460018302840111640100000000831117156102f057600080fd5b91908080601f016020809104026020016040519081016040528093929190818152602001838380828437600081840152601f19601f820116905080830192505050505050509192919290803590602001909291905050506108bc565b005b34801561035a57600080fd5b506103a76004803603604081101561037157600080fd5b81019080803573ffffffffffffffffffffffffffffffffffffffff16906020019092919080359060200190929190505050610984565b005b3480156103b557600080fd5b506103e2600480360360208110156103cc57600080fd5b8101908080359060200190929190505050610a62565b005b3480156103f057600080fd5b506103f9610ba5565b604051808273ffffffffffffffffffffffffffffffffffffffff16815260200191505060405180910390f35b6104516004803603602081101561043b57600080fd5b8101908080359060200190929190505050610bcb565b005b34801561045f57600080fd5b506104ac6004803603604081101561047657600080fd5b81019080803573ffffffffffffffffffffffffffffffffffffffff16906020019092919080359060200190929190505050610ddd565b6040518083151581526020018281526020019250505060405180910390f35b3480156104d757600080fd5b5061050e600480360360408110156104ee57600080fd5b810190808035906020019092919080359060200190929190505050610e1b565b005b34801561051c57600080fd5b5061055f6004803603602081101561053357600080fd5b81019080803573ffffffffffffffffffffffffffffffffffffffff169060200190929190505050610f4a565b6040518082815260200191505060405180910390f35b34801561058157600080fd5b506105ae6004803603602081101561059857600080fd5b8101908080359060200190929190505050610fcc565b005b3480156105bc57600080fd5b50610609600480360360408110156105d357600080fd5b81019080803573ffffffffffffffffffffffffffffffffffffffff1690602001909291908035906020019092919050505061110f565b005b600073ffffffffffffffffffffffffffffffffffffffff168273ffffffffffffffffffffffffffffffffffffffff16141561064557600080fd5b6001600460008573ffffffffffffffffffffffffffffffffffffffff1673ffffffffffffffffffffffffffffffffffffffff168152602001908152602001600020600082825403925050819055506001600460008473ffffffffffffffffffffffffffffffffffffffff1673ffffffffffffffffffffffffffffffffffffffff16815260200190815260200160002060008282540192505081905550816005600083815260200190815260200160002060006101000a81548173ffffffffffffffffffffffffffffffffffffffff021916908373ffffffffffffffffffffffffffffffffffffffff160217905550505050565b6002602052806000526040600020600091509050806000015490806001018054600181600116156101000203166002900480601f0160208091040260200160405190810160405280929190818152602001828054600181600116156101000203166002900480156107ea5780601f106107bf576101008083540402835291602001916107ea565b820191906000526020600020905b8154815290600101906020018083116107cd57829003601f168201915b5050505050908060020154908060030160009054906101000a900460ff16905084565b6000806005600084815260200190815260200160002060009054906101000a900473ffffffffffffffffffffffffffffffffffffffff169050600073ffffffffffffffffffffffffffffffffffffffff168173ffffffffffffffffffffffffffffffffffffffff16141561088057600080fd5b6005600084815260200190815260200160002060009054906101000a900473ffffffffffffffffffffffffffffffffffffffff16915050919050565b6108c461124c565b60405180608001604052808581526020018481526020018381526020016001151581525090508060026000806000815480929190600101919050558152602001908152602001600020600082015181600001556020820151816001019080519060200190610933929190611276565b506040820151816002015560608201518160030160006101000a81548160ff021916908315150217905550905050600080815480929190600101919050555061097e33600054610984565b50505050565b600073ffffffffffffffffffffffffffffffffffffffff168273ffffffffffffffffffffffffffffffffffffffff1614156109be57600080fd5b6001600460008473ffffffffffffffffffffffffffffffffffffffff1673ffffffffffffffffffffffffffffffffffffffff16815260200190815260200160002060008282540192505081905550816005600083815260200190815260200160002060006101000a81548173ffffffffffffffffffffffffffffffffffffffff021916908373ffffffffffffffffffffffffffffffffffffffff1602179055505050565b600160009054906101000a900473ffffffffffffffffffffffffffffffffffffffff1673ffffffffffffffffffffffffffffffffffffffff163373ffffffffffffffffffffffffffffffffffffffff1614610b25576040517f08c379a00000000000000000000000000000000000000000000000000000000081526004018080602001828103825260158152602001807f796f7520617265206e6f7420746865206f776e6572000000000000000000000081525060200191505060405180910390fd5b60006002600083815260200190815260200160002060030160006101000a81548160ff0219169083151502179055506040517f08c379a00000000000000000000000000000000000000000000000000000000081526004018080602001828103825260348152602001806113306034913960400191505060405180910390fd5b600160009054906101000a900473ffffffffffffffffffffffffffffffffffffffff1681565b600115156002600083815260200190815260200160002060030160009054906101000a900460ff16151514610c68576040517f08c379a000000000000000000000000000000000000000000000000000000000815260040180806020018281038252601e8152602001807f54686120496e737572616e6365206973206e6f7420617661696c61626c65000081525060200191505060405180910390fd5b610c706112f6565b604051806040016040528060011515815260200142815250905080600360003373ffffffffffffffffffffffffffffffffffffffff1673ffffffffffffffffffffffffffffffffffffffff168152602001908152602001600020600084815260200190815260200160002060008201518160000160006101000a81548160ff0219169083151502179055506020820151816001015590505060026000838152602001908152602001600020600201543414610d76576040517f08c379a00000000000000000000000000000000000000000000000000000000081526004018080602001828103825260218152602001806113646021913960400191505060405180910390fd5b6000600260008481526020019081526020016000206002015490503373ffffffffffffffffffffffffffffffffffffffff166108fc829081150290604051600060405180830381858888f19350505050158015610dd7573d6000803e3d6000fd5b50505050565b6003602052816000526040600020602052806000526040600020600091509150508060000160009054906101000a900460ff16908060010154905082565b600160009054906101000a900473ffffffffffffffffffffffffffffffffffffffff1673ffffffffffffffffffffffffffffffffffffffff163373ffffffffffffffffffffffffffffffffffffffff1614610ede576040517f08c379a00000000000000000000000000000000000000000000000000000000081526004018080602001828103825260158152602001807f796f7520617265206e6f7420746865206f776e6572000000000000000000000081525060200191505060405180910390fd5b8060026000848152602001908152602001600020600201819055506040517f08c379a00000000000000000000000000000000000000000000000000000000081526004018080602001828103825260348152602001806113306034913960400191505060405180910390fd5b60008073ffffffffffffffffffffffffffffffffffffffff168273ffffffffffffffffffffffffffffffffffffffff161415610f8557600080fd5b600460008373ffffffffffffffffffffffffffffffffffffffff1673ffffffffffffffffffffffffffffffffffffffff168152602001908152602001600020549050919050565b600160009054906101000a900473ffffffffffffffffffffffffffffffffffffffff1673ffffffffffffffffffffffffffffffffffffffff163373ffffffffffffffffffffffffffffffffffffffff161461108f576040517f08c379a00000000000000000000000000000000000000000000000000000000081526004018080602001828103825260158152602001807f796f7520617265206e6f7420746865206f776e6572000000000000000000000081525060200191505060405180910390fd5b60016002600083815260200190815260200160002060030160006101000a81548160ff0219169083151502179055506040517f08c379a00000000000000000000000000000000000000000000000000000000081526004018080602001828103825260348152602001806113306034913960400191505060405180910390fd5b8173ffffffffffffffffffffffffffffffffffffffff163373ffffffffffffffffffffffffffffffffffffffff161415611194576040517f08c379a00000000000000000000000000000000000000000000000000000000081526004018080602001828103825260258152602001806113856025913960400191505060405180910390fd5b3373ffffffffffffffffffffffffffffffffffffffff166111b48261080d565b73ffffffffffffffffffffffffffffffffffffffff161461123d576040517f08c379a00000000000000000000000000000000000000000000000000000000081526004018080602001828103825260148152602001807f20596f7572206e6f7420746865204f776e65722000000000000000000000000081525060200191505060405180910390fd5b61124833838361060b565b5050565b60405180608001604052806000815260200160608152602001600081526020016000151581525090565b828054600181600116156101000203166002900490600052602060002090601f016020900481019282601f106112b757805160ff19168380011785556112e5565b828001600101855582156112e5579182015b828111156112e45782518255916020019190600101906112c9565b5b5090506112f29190611312565b5090565b6040518060400160405280600015158152602001600081525090565b5b8082111561132b576000816000905550600101611313565b509056fe646f206e6f742072756e20746869732066756e6374696f6e20616761696e20697420636f737420796f7520736f6d652066656573636865636b2074686520616d6f756e74206f662074686520496e737572616e636520596f752061726520746865206f776e6572206f66207468697320496e737572616e636520a26469706673582212206f45ca5f52f32f9f99524a3f38642fb5e76ccda75e97afb14ebb18c2c9a2b41764736f6c63430007000033",
  "immutableReferences": {},
  "source": "//SPDX-License-Identifier: MIT\r\npragma solidity ^0.7.0;\r\n\r\n //import \"../github/OpenZeppelin/openzeppelin-contracts/contracts/token/ERC721/ERC721.sol\";\r\n\r\n\r\ncontract TechInsurance {\r\n    struct Product {\r\n        uint productId;\r\n        string productName;\r\n        uint price;\r\n        bool offered;\r\n    }\r\n    struct Client {\r\n        bool isValid;\r\n        uint time;\r\n    }\r\n       \r\n    uint productCounter;\r\n  \r\n    address public insOwner;\r\n    constructor() public{\r\n        insOwner = msg.sender;\r\n    }\r\n    \r\n    mapping(uint => Product) public productIndex;\r\n    mapping(address => mapping(uint => Client)) public client;\r\n    \r\n    \r\n   mapping(address => uint256) private _balance;\r\n   mapping(uint256 => address) private _owners;\r\n   \r\n   \r\n   function _balanceOf(address owner) public view returns(uint256){\r\n       require(owner !=address(0));\r\n       return _balance[owner];\r\n   }\r\n   \r\n    function _ownerOf(uint256 _id) public view returns(address){\r\n       address owner = _owners[_id];\r\n       require(owner != address(0));\r\n       return _owners[_id];\r\n   }\r\n   \r\n    function addProduct(uint _productId, string memory _productName, uint _price ) public  {\r\n        Product memory newProduct = Product (_productId, _productName, _price, true);\r\n        productIndex[productCounter++] = newProduct;\r\n        productCounter++;\r\n        _mint(msg.sender, productCounter);\r\n    }\r\n    \r\n    function changeFalse(uint _Index) public  onlyOwner {\r\n        productIndex[_Index].offered = false;\r\n    }\r\n    \r\n    function changeTrue(uint _Index) public  onlyOwner{\r\n        productIndex[_Index].offered = true;\r\n    }\r\n    \r\n    modifier onlyOwner {\r\n      require(msg.sender == insOwner, \"you are not the owner\" );\r\n      _;\r\n      revert(\"do not run this function again it cost you some fees\");\r\n     }\r\n     \r\n    function changePrice(uint _productIndex, uint _price) public  onlyOwner{ // inherit modifier\r\n        productIndex[_productIndex].price = _price;\r\n    }\r\n    \r\n    function buyInsurance(uint _productIndex) public  payable {\r\n        require(productIndex[_productIndex].offered == true, \"Tha Insurance is not available\");\r\n        Client memory newClient = Client (true, block.timestamp);\r\n        client[msg.sender][_productIndex] =   newClient ;\r\n        require(msg.value  == productIndex[_productIndex].price, \"check the amount of the Insurance\");\r\n        uint256 price = productIndex[_productIndex].price;\r\n        payable(msg.sender).transfer(price);\r\n    } \r\n    \r\n   function transferInsurance( address to, uint256 _id) public {\r\n       require(msg.sender != to,\" You are the owner of this Insurance \");\r\n       require(_ownerOf(_id) == msg.sender,\" Your not the Owner \");\r\n        _transfer(msg.sender, to, _id);\r\n    }\r\n    \r\n    function _transfer(address from, address to, uint256 tokenId) public {\r\n        require(to != address(0));\r\n        _balance[from] -= 1;\r\n        _balance[to] += 1;\r\n        _owners[tokenId] = to;\r\n    }\r\n    \r\n    function _mint(address to, uint256 tokenId) public {\r\n        require(to != address(0));\r\n        _balance[to] += 1;\r\n        _owners[tokenId] = to;\r\n    }\r\n}",
  "sourcePath": "C:/Users/User/Desktop/week6/contracts/TechInsurance.sol",
  "compiler": {
    "name": "solc",
    "version": "0.7.0+commit.9e61f92b.Emscripten.clang"
  },
  "schemaVersion": "3.3.4",
  "updatedAt": "2021-03-08T19:54:08.893Z",
  "networkType": "ethereum",
  "devdoc": {
    "kind": "dev",
    "methods": {},
    "version": 1
  },
  "userdoc": {
    "kind": "user",
    "methods": {},
    "version": 1
  }
}